:1000000012C02CC02BC02AC029C028C027C026C0BF
:1000100025C024C023C022C021C020C01FC01EC0D4
:100020001DC01CC01BC011241FBECFE5D4E0DEBF25
:10003000CDBF10E0A0E6B0E0EEE7FEE002C0059024
:100040000D92A63AB107D9F720E0A6EAB0E001C0C8
:100050001D92AF3DB207E1F777D10FC7D1CFBE9860
:10006000BD98BC98BB98C19AC29A86B383FB882777
:1000700080F9B4998260B5998460B6998860829558
:10008000807FC298C29A96B393FB992790F9B4994E
:100090009260B5999460B6999860C298892B08953A
:1000A000C098DDDF0895BE9ABD9ABC9ABB9AC198EC
:1000B000C29A982F92959F7090FF02C0C39A01C078
:1000C000C39891FF02C0C49A01C0C49892FF02C0B5
:1000D000C59A01C0C598987011F0C69A01C0C6981B
:1000E000C298C29A80FF02C0C39A01C0C39881FF20
:1000F00002C0C49A01C0C49882FF02C0C59A01C060
:10010000C59883FF02C0C69A01C0C698C298C8DFCE
:100110008823ECF30895C098C6DF0895C09AC3DF22
:1001200008958093AB006093AA00823050F4662358
:1001300044F0603134F4813009F480E46058860F73
:10014000EADF0895CF93C82F8091AB00823070F41E
:100150006091AA00662354F0603144F4E2DF8C2FF2
:100160008058883008F4C7708C2FD8DF8091AA009F
:100170008F5F8093AA00CF910895CF93DF93EC0116
:100180008991882321F0DEDF89918111FCCFDF91F5
:10019000CF9108951092AB001092AA0081E0BBDFCE
:1001A0000895BE9ABD9ABC9ABB9AB89ABA9AB99A5F
:1001B000C09AC29AC19A85EA9EE00197F1F700C001
:1001C0000000C298C098C198C29AC39AC49AC598B0
:1001D000C698C29880E094E00197F1F700C0000053
:1001E000C29AC39AC49AC598C698C29891E29A9541
:1001F000F1F70000C29AC39AC49AC598C698C298EB
:1002000081E28A95F1F70000C29AC398C49AC59812
:10021000C698C29891E29A95F1F7000088E27BDFD8
:1002200088E079DF8CE077DF86E075DFB3DF089563
:100230008F9898E080E08F9A22E02A95F1F70000ED
:100240008F9822E02A95F1F70000869587998068BB
:1002500027E12A95F1F70000915069F708959798E2
:10026000879B18C08F9A86EA8A95F1F700C08F980D
:1002700087E18A95F1F70000879906C086EA8A959A
:10028000F1F700C081E0089586EA8A95F1F700C091
:1002900080E0089580E00895979898E08F9A80FF15
:1002A0000AC022E02A95F1F700008F9827E12A95ED
:1002B000F1F7000009C027E12A95F1F700008F98B7
:1002C00022E02A95F1F700008695915039F70895BC
:1002D000C6DF882331F08CECDFDF84E4DDDF81E0F2
:1002E000089580E008950F931F93CF93DF93082F15
:1002F000192FB5DF882371F08CECCEDF8EEBCCDFCD
:10030000C02FD12F19E094DF89931150E1F721E03C
:1003100030E002C020E030E0822F932FDF91CF91B8
:100320001F910F9108958AB18B708AB9539A80B545
:10033000877880BD80B5866880BD80B58F7780BDA9
:1003400010BC83E389B90895E2E6F0E00190002053
:10035000E9F73197E256F040F093AF00E093AE003A
:10036000E2DF1FDF17DF0F2EF7EDAF2EF0E0BF2E1D
:10037000F02D0F2EF1E7EF2EF2E0FF2EF02D0F2ED5
:10038000FDE0CF2ED12CF02D0F2EF3E98F2EF0E0D3
:100390009F2EF02DC0EBD0E00F2EF8EE6F2EF3E085
:1003A0007F2EF02D0F2EF0EA4F2EF0E05F2EF02D75
:1003B0006894332434F88CDF8823E9F32FE34DE08D
:1003C00083E0215040408040E1F700C0000086ED0E
:1003D00090E089DF2090D600F501108100E0B8019F
:1003E000620D711D882777FD8095982F6DD120E0D3
:1003F00030E040E85DE3CCD134D1362F472F609315
:10040000C1007093C200222D2F702E9DC0012F9D20
:10041000900D11249093AD008093AC00809160000A
:10042000909161000A9709F09CC04F933F9388E731
:1004300090E09F938F93DF93CF935CD28091AC0039
:100440009091AD000F900F900F900F900F900F9024
:10045000009791F41F921F928CE790E09F938F93E7
:1004600085EC90E09F938F9345D20F900F900F9063
:100470000F900F900F9029C09C01215031092B3B08
:10048000324090F49F938F938EE790E09F938F93E9
:1004900085EC90E09F938F932DD20F900F900F904B
:1004A0000F900F900F9011C09F938F938FE790E064
:1004B0009F938F9385EC90E09F938F931BD20F9027
:1004C0000F900F900F900F900F90FDE0FCB95D9B87
:1004D000FECF5E9BFECF5E9A2AE02CB95D9BFECFDD
:1004E0005E9BFECF5E9A1092C4001092C30088817A
:1004F0008823A9F08CB95D9BFECF5E9BFECF5E9AF0
:100500008091C3009091C40001969093C4008093A1
:10051000C300FC01E055FF4F80818111EBCF1092A9
:10052000C4001092C300E5ECF0E080818823A9F0BC
:100530008CB95D9BFECF5E9BFECF5E9A8091C3001F
:100540009091C40001969093C4008093C300FC0175
:10055000EB53FF4F80818111EBCF1092610010921D
:10056000600080916000909161000196909361001D
:100570008093600060E080E0D4DD82E890E0FDDD03
:100580006091A8007091A900CB0101979093A900F8
:100590008093A80080E0C5DD82E690E0EEDD8091EA
:1005A000AE009091AF009601281B390B8091A800F6
:1005B0009091A900281739070CF1E6EAF0E0808154
:1005C000632D681B80E0ADDD82E690E0D6DD809192
:1005D000A6009091A7000F9741F41092A9001092E5
:1005E000A8001092A7001092A6008091A6009091FA
:1005F000A70001969093A7008093A6008091C20067
:100600008F938091C1008F939F928F92DF93CF93AE
:1006100071D160E081E085DD87E990E0AEDDCE015B
:10062000ACDD2091D6002F702E9DC0012F9D900D26
:100630001124B30138D16093AC007093AD007F9367
:100640006F935F924F92DF93CF9354D1CE0195DD9C
:10065000EDB7FEB73C960FB6F894FEBF0FBEEDBFE8
:10066000AACE04D06894B1118DC0089570D088F0DE
:100670009F5790F0B92F9927B751A0F0D1F0660F8E
:10068000771F881F991F1AF0BA95C9F712C0B130A9
:1006900081F077D0B1E0089574C0672F782F882754
:1006A000B85F39F0B93FCCF3869577956795B395E8
:1006B000D9F73EF490958095709561957F4F8F4F57
:1006C0009F4F0895E89409C097FB3EF4909580955C
:1006D000709561957F4F8F4F9F4F9923A9F0F92F08
:1006E00096E9BB279395F695879577956795B79586
:1006F000F111F8CFFAF4BB0F11F460FF1BC06F5F6C
:100700007F4F8F4F9F4F16C0882311F096E911C07D
:10071000772321F09EE8872F762F05C0662371F09E
:1007200096E8862F70E060E02AF09A95660F771FB2
:10073000881FDAF7880F9695879597F9089557FDE2
:100740009058440F551F59F05F3F71F04795880F3F
:1007500097FB991F61F09F3F79F0879508951216D6
:1007600013061406551FF2CF4695F1DF08C0161682
:1007700017061806991FF1CF869571056105089433
:100780000895E894BB2766277727CB0197F908954A
:100790000BD078C069D028F06ED018F0952309F0FE
:1007A0005AC05FC01124EECFCADFA0F3959FD1F3EA
:1007B000950F50E0551F629FF001729FBB27F00D0F
:1007C000B11D639FAA27F00DB11DAA1F649F662764
:1007D000B00DA11D661F829F2227B00DA11D621FB3
:1007E000739FB00DA11D621F839FA00D611D221F6D
:1007F000749F3327A00D611D231F849F600D211D51
:10080000822F762F6A2F11249F5750408AF0E1F0F3
:1008100088234AF0EE0FFF1FBB1F661F771F881F3C
:1008200091505040A9F79E3F510570F014C0AACFD7
:100830005F3FECF3983EDCF3869577956795B79527
:10084000F795E7959F5FC1F7FE2B880F911D969551
:10085000879597F9089597F99F6780E870E060E0C1
:1008600008959FEF80EC089500240A941616170649
:1008700018060906089500240A9412161306140691
:1008800005060895092E0394000C11F4882352F0F4
:10089000BB0F40F4BF2B11F460FF04C06F5F7F4FAC
:1008A0008F4F9F4F089597FB072E16F4009406D0A4
:1008B00077FD08D00BD007FC05D03EF490958195CC
:1008C0009F4F0895709561957F4F0895AA1BBB1B9C
:1008D00051E107C0AA1FBB1FA617B70710F0A61B40
:1008E000B70B881F991F5A95A9F780959095BC0161
:1008F000CD010895AEE0B0E0EFE7F4E095C20D89D8
:100900001E8986E08C831A8309838FEF9FE79E837D
:100910008D83CE014996AC016F89788DCE01019609
:1009200008D0EF81F885E00FF11F10822E96E4E0E9
:1009300097C2ACE0B0E0EEE9F4E068C27C016B0184
:100940008A01FC0117821682838181FFB9C1882444
:100950008394912C8C0E9D1EF7019381F60193FDDB
:10096000859193FF81916F01882309F4A5C1853298
:1009700039F493FD859193FF81916F01853221F4C4
:10098000B70190E0B9D1E8CF512C312C20E02032D2
:10099000A8F48B3261F028F4803251F0833271F484
:1009A0000BC08D3239F0803349F4216028C02260B9
:1009B000246025C0286023C0206121C027FD27C0F6
:1009C000382F30533A3078F426FF06C0FAE05F9EA5
:1009D000300D1124532E13C08AE0389E300D11249F
:1009E000332E20620CC08E3221F426FD65C12064B6
:1009F00006C08C3611F4206802C0883641F4F60136
:100A000093FD859193FF81916F018111C0CF982F44
:100A10009554933018F09052933028F40C5F1F4F88
:100A2000FFE3F9830DC0833631F0833771F08335EE
:100A300009F05AC022C0F801808189830E5F1F4FE0
:100A400044244394512C540114C03801F2E06F0E39
:100A5000711CF801A080B18026FF03C0652D70E0F5
:100A600002C06FEF7FEFC5012C873BD12C018301C2
:100A70002C856FE7262E222217C03801F2E06F0E78
:100A8000711CF801A080B18026FF03C0652D70E0C5
:100A900002C06FEF7FEFC5012C8718D12C012C8588
:100AA00050E8252E222A830123FC1AC005C0B70175
:100AB00080E290E021D13A94832D90E048165906C7
:100AC000B0F30EC0F50127FC859127FE81915F01EF
:100AD000B70190E011D131103A94F1E04F1A51086A
:100AE0004114510479F7E5C0843611F0893639F59F
:100AF000F80127FF07C060817181828193810C5FBB
:100B00001F4F08C060817181882777FD8095982FDD
:100B10000E5F1F4F4FE6B42EB22297FF09C090958B
:100B20008095709561957F4F8F4F9F4FF0E8BF2A5A
:100B30002AE030E0A4010CD1A82EA81842C08537C5
:100B400031F43FEEB32EB2222AE030E024C099EF18
:100B5000B92EB2228F36B9F020F4883509F0ACC036
:100B60000DC0803721F0883709F0A6C002C020E10F
:100B7000B22AB4FE0BC084E0B82A08C024FF09C022
:100B8000E6E0BE2A06C028E030E005C020E130E003
:100B900002C020E132E0F801B7FE07C06081718138
:100BA000828193810C5F1F4F06C06081718180E05C
:100BB00090E00E5F1F4FA401CBD0A82EA818FFE72E
:100BC000BF22B6FE0BC02B2D2E7FA51450F4B4FE11
:100BD0000AC0B2FC08C02B2D2E7E05C07A2C2B2D0E
:100BE00003C07A2C01C0752C24FF0DC0FE01EA0D54
:100BF000F11D8081803311F4297E09C022FF06C0D7
:100C00007394739404C0822F867809F0739423FD43
:100C100013C020FF0EC05A2C731458F4530C5718ED
:100C2000732C07C0B70180E290E02C8765D07394E5
:100C30002C857314B8F304C0731410F4371801C072
:100C4000312C24FF11C0B70180E390E02C8754D0F1
:100C50002C8522FF1CC021FF03C088E590E002C064
:100C600088E790E0B7010CC0822F867881F021FDE3
:100C700002C080E201C08BE227FD8DE2B70190E067
:100C80003BD005C0B70180E390E036D05A94A5145C
:100C9000C8F3AA94F401EA0DF11DB701808190E038
:100CA0002BD0A110F6CF05C0B70180E290E024D090
:100CB0003A943110F9CF50CEF7012681378102C026
:100CC0002FEF3FEFC9012C96E2E1BCC0FC0105907B
:100CD000615070400110D8F7809590958E0F9F1F3E
:100CE0000895FC016150704001900110D8F7809583
:100CF00090958E0F9F1F08950F931F93CF93DF93AF
:100D00008C01EB018B8181FD03C00FEF1FEF1AC037
:100D100082FF0DC02E813F818C819D81281739076C
:100D200064F4E881F9810193F983E88306C0E885DA
:100D3000F985802F0995892B41F78E819F81019636
:100D40009F838E83C801DF91CF911F910F910895EA
:100D5000FA01AA27283051F1203181F1E8946F93EC
:100D60006E7F6E5F7F4F8F4F9F4FAF4FB1E03ED092
:100D7000B4E03CD0670F781F891F9A1FA11D680F30
:100D8000791F8A1F911DA11D6A0F711D811D911D63
:100D9000A11D20D009F468943F912AE0269F1124D8
:100DA0003019305D3193DEF6CF010895462F47703C
:100DB000405D4193B3E00FD0C9F7F6CF462F4F7097
:100DC000405D4A3318F0495D31FD4052419302D0F5
:100DD000A9F7EACFB4E0A69597958795779567959B
:100DE000BA95C9F700976105710508959B01AC019B
:100DF0000A2E06945795479537952795BA95C9F7C2
:100E0000620F731F841F951FA01D08952F923F929C
:100E10004F925F926F927F928F929F92AF92BF920A
:100E2000CF92DF92EF92FF920F931F93CF93DF93B6
:100E3000CDB7DEB7CA1BDB0B0FB6F894DEBF0FBE13
:100E4000CDBF09942A88398848885F846E847D8460
:100E50008C849B84AA84B984C884DF80EE80FD8062
:100E60000C811B81AA81B981CE0FD11D0FB6F894D8
:0E0E7000DEBF0FBECDBFED010895F894FFCF99
:100E7E000A00205465726D6F6D657472206D656425
:100E8E0079637A6E792E200025642C00303030255F
:100E9E006400202020202020202020202020202020
:100EAE0020200025642E00202054656D703D20000A
:060EBE002564DF43200063
:00000001FF
